:0300000002084CA7
:0C084C00787FE4F6D8FD75812002089347
:100A4A00C0F9A4B0999282F8809008040201245453
:100A5A0045414C514C243030303030303030303019
:100A6A003030303030303030303030303030243088
:100A7A00303030303030303030303030303030009C
:100A8A0046464646464646464646464646464646FC
:100A9A00004552524F5200C0F9A4B0999282F88090
:100AAA00900808080808080808000000000000006C
:010ABA00003B
:0F119100845F01010101845500000000816400AA
:0A11C90000007F077E70DEFEDFFCF1
:0111D30022F9
:041204007FA3DFFEE7
:0112080022C3
:0611EF0000007F79DFFE25
:0111F50022D7
:0811DE007F027E0FDEFEDFFC44
:0111E60022E6
:0911D400007F0B7EBEDEFEDFFC95
:0111DD0022EF
:1010D600E4FDD2A4745F2DF8E2F580C2A4ED900A77
:0C10E6005493F5801211D40DEDB404E613
:0110F20022DB
:100F9D00E47890F2D2A70000C2A77F587E0212110A
:100FAD0058D2A77F3C7E00121158A2A7E433789047
:0C0FBD00F27F647E001211587890E2FF71
:010FC9002205
:100F0200E47890F208F2187408F2D2A70000C2A79F
:100F12007891E2C313F2D2A730A704E24480F27FB1
:100F22003C7E001211587890E214F2E2D394005001
:050F3200D97891E2FFF7
:010F37002297
:040F6B007890EFF299
:100F6F00E408F27408F2C2A77890E21392A77F3CCC
:100F7F007E00121158D2A77890E2C313F208E21440
:0E0F8F00F2E2D3940050DF7F2D7E0002115855
:0A0EC8007800EBF208EAF208E9F204
:100ED200120F9D7F33120F6BE47803F2120F027828
:100EE20000E2FB08E2FA08E2F908E2F58275830003
:0F0EF200EF1204837803E204F2E2C3940840DDB8
:010F010022CD
:100CF600120F9D7FCC120F6B7F44120F6B120F9D4C
:100D06007FCC120F6B7FBE120F6B120F02788FEF24
:100D1600F2120F02EFFE788FE2FDEDFFC3EE9400B4
:100D2600500FD200EFF4FFEEF4FEEF2401FFE43E95
:080D3600FE7859EEF208EFF21D
:010D3E002292
:1007AC007859E2FC08E2FDEC1202A6E4FBFA79802F
:1007BC00783D1200FB7891120508E4FFFE7D207C49
:1007CC00417891E2FB08E2F908E2FA08E2CBF81270
:1007DC0000FBE4FBFAF9783F12000A1202DFAB07C8
:1007EC00AA067C007D641204A5788FEFF27C007D54
:1007FC0064AF03AE021204A57E007F0ACFCDCFCE2C
:10080C00CCCE1204A57890EFF2AE02AF037C007D43
:10081C00641204A57E007F0ACFCDCFCECCCE1204BD
:10082C00A5AF05786274FFF2788FE2900A4A93784C
:0F083C0061F27890E293547F7860F2EF9318F2B4
:01084B00228A
:0A06BE007804EBF208EAF208E9F212
:1006C80078087C007DFE7BFF7A0A79587E007F21BE
:1006D80012043078297C007DFE7BFF7A0A79797EC6
:1006E800007F11120430783A7C007DFE7BFF7A0A85
:1006F800798A7E007F11120430784B7C007DFE7B66
:10070800FF7A0A799B7E007F061204307804E2FBA8
:1007180008E2FA08E2F8AC02AD037BFE7A00792918
:100728007E007F1012069AEF601E7804E2FB08E252
:10073800FA08E2F8AC02AD037BFE7A00793A7E0053
:100748007F1012069AEF7020E47807F27807E2FF2C
:10075800C39405504E744B2FF8E2F5993099FDC2B9
:10076800997807E204F280E478107C007DFEC000EE
:100778007804E2FB08E2FA08E2F9D0007E007F1074
:10078800120430E47807F27807E2FFC3942150138B
:1007980074082FF8E2F5993099FDC2997807E204B8
:0307A800F280E4F8
:0107AB00222B
:0C0D3F00E4788CF2788CE2C39403502B13
:100D4B00087401F2E408F2788DE2F4F5807FF47E0A
:100D5B000112109A788DE225E0F208E204F2E2C368
:090D6B00940840E3788CE204F2E4
:0F0D740080CDE4F5807FE87E0312109A7580FF32
:010D8300224D
:0D096100788CEBF208EAF208E9F208EDF2FA
:10096E00087C007DFE7BFF7A0A79A17E007F0A1249
:10097E000430D2A4789B74FEF2E418F2788FE2FF72
:10098E00789AE2FEC39F503F7580FFC2A408E2FF33
:10099E00F4F580D2A47801EF08800123D8FD789B6E
:1009AE00F2788CE2FB08E2FA08E2F98E8275830097
:1009BE001204562490F8E2F5807F0A7E0012109AF7
:0709CE00789AE204F280B503
:0109D50022FF
:100E8A00788DEFF208EDF21211AF7FA012107612F0
:100E9A0011134002801A788DE2FF12107612111394
:100EAA004002800C788EE2FF121076121113400372
:0E0EBA000211BC1211BC7F0A7E0012109A2297
:040D8400788DEFF285
:100D88001211AF7FA012107612111340037F0022B8
:100D9800788DE2FF121076C2011211281211AF7F6E
:100DA800A112107612111340037F0022121022782C
:0F0DB8008EEFF2C2011211281211BC788EE2FFE9
:010DC7002209
:100FF7007FFE120D84788CEFF2C394FF5006E20453
:10100700F2E28005788C7401F2FD7FFE120E8A7F72
:0A101700827E0012109A788CE2FF2E
:0110210022AC
:10104D00E47854F27863E2FF75F064847853F2EF3C
:10105D0075F00A8475F00A8418E5F0F27863E2758C
:09106D00F00A847851E5F0F2224A
:100E0B00D2A47580FFD2A3C2A3E4788CF2D2A478CB
:100E1B008CE2FF2451F8E2900A4A93F580C2A4EFCA
:100E2B00900A5493F5807F0A7E001210B8788CE2FA
:0F0E3B0004F2E2C3940440D5D2A47580FFC2A490
:010E4A002285
:100B9200E47891F208F2D2C5C2C1C2C57F14FE1236
:100BA2001158E4788FF208F27892E225E07992F314
:100BB20018E23319F330C307E2F208E24401F2D239
:100BC200C17F0A7E00121158C2C17F0A7E00121133
:100BD200587890E22401F218E23400F2C308E29459
:100BE2000818E2940040C1D2C57F647E00121158F9
:070BF2007891E2FE08E2FF2A
:010BF90022D9
:100B2700785BE2FC08E2FD08E2FE08E2FF1202DF62
:100B3700AB07AA067C037DE81204A57858EFF27C80
:100B4700007D64AF03AE021204A57C007D0A120487
:100B5700A57857EDF2785BE2FC08E2FD08E2FE08B3
:100B6700E2FF1202DFAB07AA067C007D0A1204A58A
:100B77007C007D0A1204A57856EDF27C007D0AAF51
:0B0B870003AE021204A57855EDF22227
:100BFA00D2A47580FFD2A3C2A3E4788FF2788FE2E1
:100C0A00FFC39404503CEF64037010D2A4E2FF24A3
:100C1A0055F8E2900A4A93547F800ED2A4788FE264
:100C2A00FF2455F8E2900A4A93F580C2A4EF900A8D
:100C3A005493F5807F0A7E0012109A788FE204F2AC
:090C4A0080BBD2A47580FFC2A496
:010C5300227E
:10116D00E4FDFCC3ED9FEC9E50070DBD00010C800E
:01117D00F27F
:01117E00224E
:0E11A100C2C07F1E7E0012116DD2C002116D01
:1008D80020B0147F0A7E0012109A20B00A7864E2D1
:1008E800640160037401F220B1147F0A7E001210C3
:1008F8009A20B10A7864E2640260037402F220B2BA
:10090800147F0A7E0012109A20B20A7864E2640307
:1009180060037403F220B3147F0A7E0012109A2039
:10092800B30A7864E2640460037404F230B00878AF
:1009380064E2B40102E4F230B1087864E2B402027D
:10094800E4F230B2087864E2B40302E4F230B308A7
:090958007864E2B40402E4F22226
:0E09D6007864E224FE605B14606624027065A3
:1009E400E4788CF230B35E788CE204F2E2B4140E54
:1009F400120B92788DEEF208EFF2E4788CF2788D97
:100A0400E2FC08E2FDE41202A6E4FBFA79A07840D5
:100A14001200FBE4FBFA797F7843120204E4FBFA48
:100A2400797A78441200FB785B120508120B2712BE
:040A34000BFA80B089
:100A380030B30E120CF61207AC1210D680F2121157
:020A4800A122E9
:100ABB00E4787BF2087C007DFE7BFF7A0A79ABFE43
:100ACB007F10120430D2C5C2A4D2A3120D3FC2A311
:100ADB0075BBFF121141C2C5D2A778797464F27845
:100AEB0079E2FF14F2EF600D7BFE7A00797C7D08D2
:100AFB0012096180EA120FF77863EFF212104D3092
:100B0B00B00E30B10B30B20830B305120E0B80EFC4
:0C0B1B00D2C5C2A71208D81209D680F873
:0711F600D2A500D2A60022E1
:0D11AF00D2A600D2A51211FDC2A50211FDAD
:0D11BC00C2A500D2A61211FDD2A50211FDA0
:10112800C2A600300104C2A58002D2A500D2A61230
:0911380011FDC2A600D2A500229F
:05110E007FA012107625
:10111300D2A61211FD30A508C2A6001211BCC3222B
:05112300C2A600D3226A
:10107600E4FEC2A600EF30E705D2A5008003C2A5B4
:1010860000D2A600EF25E0FF0EEEB408E5C2A600EA
:03109600D2A500E0
:011099002234
:10102200C2A600D2A500E4FED2A600EF30A5054478
:1010320001FF800354FEFF00C2A600EEC3940750D6
:0A10420004EF25E0FF0EEEB408DE17
:01104C002281
:100F3800786DEFF208ECF208EDF21211AF12110E13
:100F4800400122786DE2FF1210761211134001223F
:100F5800786E08E2FF121076121113400122121166
:030F6800BCD322D5
:040E4B007870EFF2DA
:100E4F001211AF12110E40037F00227870E2FF12D1
:100E5F001076C2011211281211AF7FA11210761253
:100E6F00111340037F00221210227871EFF2C2019A
:0A0E7F001211281211BC7871E2FF75
:010E89002246
:10117F00AD071FED600BE4FEEEC3947050F20E80CE
:01118F00F768
:01119000223C
:100CA600AB077F0512117FC2A2C2A0C2A100D2A2C9
:100CB600EBC41313135401139297EBC41313540389
:100CC600139296EBC4135407139295EBC4540F1367
:100CD6009294EB131313541F139293EB1313543F75
:100CE600139292EBC313139291EB139290C2A2222A
:100C5400AB077F0512117FC2A2D2A0C2A100D2A20B
:100C6400EBC41313135401139297EBC413135403DB
:100C7400139296EBC4135407139295EBC4540F13B9
:100C84009294EB131313541F139293EB1313543FC7
:100C9400139292EBC313139291EB139290C2A2C2DC
:020CA400A0228C
:0210F300AA054C
:1010F500EFC39410EF400524B0FC80032480FCAFBF
:0911050004120CA6AF02020C5406
:0A0DC8007873EBF208EAF208E9F292
:100DD200EFC454F07877F2E408F27876E2FF78789C
:100DE200E2FEC39F502218E2FF04F27873E2FB088E
:100DF200E2FA08E2F98E82758300120456FD12109F
:080E0200F37878E204F280D2DB
:010E0A0022C5
:100FCA007F0F12117F7F38120CA67F38120CA67F72
:100FDA0038120CA67F06120CA67F0C120CA67F01F3
:0D0FEA00120CA67F0F12117F7F0F02117FE6
:1011410053877F75985053890F438920758BFD759F
:071151008DFDC2ABD28E221E
:0811E7008F993099FDC2992295
:05120900AE070211E731
:02120E000022BC
:10115800E4FDFCC3ED9FEC9E500A12120E0DBD007B
:04116800010C80EF07
:01116C002260
:0711FD007F057E000211587E
:10109A00D3EF9400EE940040147D727C00ED1D7035
:0D10AA00011CED4C70F7EF1F70E61E80E397
:0110B7002216
:1010B800D3EF9400EE940040147D717C00ED1D7018
:0D10C800011CED4C70F7EF1F70E61E80E379
:0110D50022F8
:1000030002034BE86480F8E933E83360110460F0DD
:10001300ED33EC337009E8FCE9FDEAFEEBFF220463
:1000230060DED3EB9FEA9EE99DE8C2E78CF0C2F75E
:1000330095F0400CE8CCF8E9CDF9EACEFAEBCFFB2A
:1000430012031685D0F05804700320D5B3E804706A
:10005300075002B2D502035592D5EC0460F7E4CC05
:10006300C0E0C398F8603B94186008400DD0E0FBF3
:1000730002032DE4FBFAC9FC8028E830E406E4C956
:10008300FBE4CAFCE830E305E4C9CACBFCE8540747
:100093006010F8C3E913F9EA13FAEB13FBEC13FC52
:1000A300D8F130F52FC3E49CFCEF9BFFEE9AFEEDF5
:1000B30099FDD0E0FBEF4E4D4C701222DB0302039F
:1000C30052EC2CFCEF33FFEE33FEED33FDED30E766
:1000D300EB02032DEF2BFFEE3AFEED39FDD0E0FBF3
:1000E30050130BBB0003020355ED13FDEE13FEEF9C
:0800F30013FFEC13FC02032DC6
:1000FB00EC4D6011E8497017ED33EC3304600DE4FF
:10010B00FCFFFEFD22E933E8330470F802034B12C7
:10011B00031658046009E4CC2481500628500902C8
:10012B000355284003020352C0E0EB4A7044B980E8
:10013B0006D0E0FB020341EF4E701CBD8008EBFFC5
:10014B00EAFEE9FD80EBE98DF0A4FEE5F00201E4A7
:10015B00E9CDF9EAFEEBFFEF89F0A4FCE5F0CE89DF
:10016B00F0A42EFFE435F0CD89F0A42DFEE435F09C
:10017B008067EF4E7005BD80D780C3EF8BF0A4ACCA
:10018B00F0EE8BF0A42CFCE435F0F8EF8AF0A42C05
:10019B00E5F038FCE433CB8DF0A42CFCE5F03BF818
:1001AB00EE8AF0A42CFCE5F038F8E433CF89F0A408
:1001BB002CFCE5F038CF3400CE89F0A42FFFE5F00E
:1001CB003EFEE433C98DF0A42EFEE5F039CD8AF066
:1001DB00A42FFFE5F03EFEE43DFD33D0E0FB5007DE
:1001EB000BBB000F020355EC2CFCEF33FFEE33FE81
:0601FB00ED33FD02032DAF
:10020100020355EC5D046005E85904700302034BD9
:10021100120316580460F6EC4860F2EC7004FDFE1F
:10022100FF22C860DB2481C85009C39860025006D0
:100231000203529850CAF582E9294B4A7005AB82F4
:1002410002034175F0007C1A7880C3EF9BEE9AEDB2
:1002510099400DC3EF9BFFEE9AFEED99FDE842F048
:10026100DC23ACF0D0E0FFD0E0FED0E0FDAB82209B
:10027100E7101BEB60BAEC2CFCEF33FFEE33FEED25
:1002810033FD02032DE803F830E705C0F075F000F7
:10029100EF2FFFEE33FEED33FD40B830E7C280AA09
:1002A10075F020800E75F010800575F0087D007ED8
:1002B100007F003392D530D5031204FAEC3340109D
:1002C100EF33FFEE33FEED33FDEC33FCD5F0ED22E1
:0E02D100E5F0247EA2D513CC92E7CDCEFF221D
:1002DF00EDD2E7CD33EC3392D524814006E4FFFE17
:1002EF00FDFC22FCE4CFCECDCC24E0501174FF8076
:1002FF00EDC3CC13CCCD13CDCE13CECF13CF047013
:07030F00F030D5DE0204FA14
:10031600E9D2E7C933E833F892D5EDD2E7CD33EC2D
:0703260033FC5002B2D522A6
:10032D00EC30E7100FBF000C0EBE00080DBD000431
:10033D000BEB6014A2D5EB13FCED92E7FD2274FFDD
:10034D00FCFDFEFF22E480F8A2D574FF13FC7D8036
:03035D00E480EF4A
:10085800020ABBE493A3F8E493A34003F68001F2F1
:1008680008DFF48029E493A3F85407240CC8C333A1
:10087800C4540F4420C8834004F456800146F6DF70
:10088800E4800B0102040810204080901191E47E5E
:10089800019360BCA3FF543F30E509541FFEE49365
:1008A800A360010ECF54C025E060A840B8E493A32C
:1008B800FAE493A3F8E493A3C8C582C8CAC583CA57
:1008C800F0A3C8C582C8CAC583CADFE9DEE780BE0F
:0111A000004E
:10036000E709F608DFFA8046E709F208DFFA803E7F
:1003700088828C83E709F0A3DFFA8032E309F6086C
:10038000DFFA8078E309F208DFFA807088828C83D4
:10039000E309F0A3DFFA806489828A83E0A3F60888
:1003A000DFFA805889828A83E0A3F208DFFA804C62
:1003B00080D280FA80C680D4806980F28033801039
:1003C00080A680EA809A80A880DA80E280CA8033A2
:1003D00089828A83ECFAE493A3C8C582C8CCC5831A
:1003E000CCF0A3C8C582C8CCC583CCDFE9DEE780EA
:1003F0000D89828A83E493A3F608DFF9ECFAA9F069
:10040000EDFB2289828A83ECFAE0A3C8C582C8CCBE
:10041000C583CCF0A3C8C582C8CCC583CCDFEADED7
:10042000E880DB89828A83E493A3F208DFF980CC39
:1004300088F0EF60010E4E60C388F0ED2402B40432
:100440000050B9F582EB2402B4040050AF232345D9
:0604500082239003B0734B
:10045600BB010CE58229F582E5833AF583E022505B
:1004660006E92582F8E622BBFE06E92582F8E222A5
:0D047600E58229F582E5833AF583E49322BF
:10048300F8BB010DE58229F582E5833AF583E8F0AF
:10049300225006E92582C8F622BBFE05E92582C85B
:0204A300F22243
:1004A500BC000BBE0029EF8DF084FFADF022E4CC3B
:1004B500F875F008EF2FFFEE33FEEC33FCEE9DEC04
:1004C500984005FCEE9DFE0FD5F0E9E4CEFD22ED4A
:1004D500F8F5F0EE8420D21CFEADF075F008EF2F94
:1004E500FFED33FD4007985006D5F0F222C398FD85
:0504F5000FD5F0EA2222
:0E04FA00C3E49FFFE49EFEE49DFDE49CFC2213
:0C050800ECF208EDF208EEF208EFF2222F
:10051400E3F5F009E208B5F06BDFF58067E3F5F089
:1005240009E608B5F05EDFF5805A87F009E608B5FC
:10053400F052DFF6804E87F009E208B5F046DFF6A8
:10054400804288828C8387F009E0A3B5F036DFF619
:10055400803288828C8387F009E493A3B5F025DF89
:10056400F5802188828C83E3F5F009E0A3B5F014CB
:10057400DFF5801088828C83E3F5F009E493A3B55A
:10058400F002DFF4020643808780E9809080D48003
:100594003E8015806E807E809D80B7808D80A38094
:1005A400518074803C02064F89828A83ECFAE4937A
:1005B400F5F0A3C8C582C8CCC583CCE493A3C8C551
:1005C40082C8CCC583CCB5F076DFE3DEE1807089E8
:1005D400828A83E493F5F0A3E208B5F062DFF48045
:1005E4005E89828A83E0F5F0A3E608B5F051DFF571
:1005F400804D89828A83E0F5F0A3E208B5F040DFFC
:10060400F5803C89828A83E493F5F0A3E608B5F08B
:100614002EDFF4802A8002805789828A83ECFAE4F0
:1006240093F5F0A3C8C582C8CCC583CCE0A3C8C5E4
:1006340082C8CCC583CCB5F006DFE4DEE280007F5F
:10064400FFB5F0020F2240027F012289828A83ECE7
:10065400FAE0F5F0A3C8C582C8CCC583CCE0A3C832
:10066400C582C8CCC583CCB5F0D5DFE5DEE380CF49
:1006740089828A83ECFAE0F5F0A3C8C582C8CCC5A8
:1006840083CCE493A3C8C582C8CCC583CCB5F0AFF2
:10069400DFE4DEE280A988F0EF60010E4E60ABED8E
:1006A4002402B404005098F582EB2402B4040050F0
:0A06B4008E232345822390058B73EB
:00000001FF
