:03000000020649AC
:0C064900787FE4F6D8FD75812002069051
:100E3A000808080808080808000000000000000068
:0A0E4A00C0F9A4B0999282F88090DC
:100DA4008A0CC0F9A4B0999282F88090840808044F
:0B0DB4000201811B008404000000000D
:1008A600E4783CF2087C007DFE7BFF7A0E793AFE06
:1008B6007F10120430D2C5C2A4D2A3120A49C2A321
:1008C60075BBFF120E87C2C5D2A7783A7464F27858
:1008D6003AE2FF14F2EF600D7BFE7A00793D7D0867
:1008E60012075E80EA120D01781AEFF2120D571206
:0E08F6000B15D2C5C2A71206D51205BB80F89D
:0C0A4900E4784DF2784DE2C39403502B8A
:100A5500087401F2E408F2784EE2F4F5807FF47E42
:100A650001120DC6784EE225E0F208E204F2E2C377
:090A7500940840E3784DE204F21C
:0F0A7E0080CDE4F5807FE87E03120DC67580FF02
:010A8D002246
:0D075E00784DEBF208EAF208E9F208EDF23E
:10076B00087C007DFE7BFF7A0E794A7E007F0A12A1
:10077B000430D2A4785C74FEF2E418F27850E2FFF5
:10078B00785BE2FEC39F503F7580FFC2A408E2FF77
:10079B00F4F580D2A47801EF08800123D8FD785CB2
:1007AB00F2784DE2FB08E2FA08E2F98E82758300DB
:1007BB001204562451F8E2F5807F0A7E00120DC612
:0707CB00785BE204F280B547
:0107D2002204
:100B9400784EEFF208EDF2120EE57FA0120D8012EE
:100BA4000E594002801A784EE2FF120D80120E593F
:100BB4004002800C784FE2FF120D80120E59400360
:0E0BC400020EF2120EF27F0A7E00120DC62201
:040A8E00784EEFF2BD
:100A9200120EE57FA0120D80120E5940037F002234
:100AA200784EE2FF120D80C201120E6E120EE57F29
:100AB200A1120D80120E5940037F0022120D2C78D4
:0F0AC2004FEFF2C201120E6E120EF2784FE2FFEA
:010AD1002202
:100D01007FFE120A8E784DEFF2C394FF5006E20483
:100D1100F2E28005784D7401F2FD7FFE120B947FA3
:0A0D2100827E00120DC6784DE2FF3D
:010D2B0022A5
:100D5700E47803F2781AE2FF75F064847802F2EF20
:100D670075F00A8475F00A8418E5F0F2781AE275CE
:090D7700F00A847800E5F0F22294
:100B1500D2A47580FFD2A3C2A3E47850F2D2A47800
:100B250050E2FF2400F8E2240CF8E2F580C2A47438
:100B3500082FF8E2F5807F0A7E00120DE47850E276
:0F0B450004F2E2C3940440D5D2A47580FFC2A489
:010B5400227E
:10083E00E47852F208F2D2C5C2C1C2C57F14FE12CC
:10084E000E9EE47850F208F27853E225E07953F3E5
:10085E0018E23319F330C307E2F208E24401F2D290
:10086E00C17F0A7E00120E9EC2C17F0A7E00120E4A
:10087E009E7851E22401F218E23400F2C308E294A9
:10088E000818E2940040C1D2C57F647E00120E9E0D
:07089E007852E2FE08E2FFC0
:0108A5002230
:1007D3007816E2FC08E2FD08E2FE08E2FF1202DFFF
:1007E300AB07AA067C037DE81204A57807EFF27C29
:1007F300007D64AF03AE021204A57C007D0A1204DF
:10080300A57806EDF27816E2FC08E2FD08E2FE08A0
:10081300E2FF1202DFAB07AA067C007D0A1204A5E1
:100823007C007D0A1204A57805EDF27C007D0AAFF9
:0B08330003AE021204A57804EDF222CF
:10090400D2A47580FFD2A3C2A3E47850F27850E257
:10091400FFC39404503CEF64037010D2A4E2FF249C
:1009240004F8E2240CF8E2547F800ED2A47850E25A
:10093400FF2404F8E2240CF8E2F580C2A474082F22
:10094400F8E2F5807F0A7E00120DC67850E204F2C8
:0909540080BBD2A47580FFC2A48F
:01095D002277
:100EB300E4FDFCC3ED9FEC9E50070DBD00010C80CB
:010EC300F23C
:010EC400220B
:0E0ED700C2C07F1E7E00120EB3D2C0020EB348
:1006D50020B0147F0A7E00120DC620B00A781BE2F6
:1006E500640160037401F220B1147F0A7E00120DCB
:1006F500C620B10A781BE2640260037402F220B2DC
:10070500147F0A7E00120DC620B20A781BE264032C
:1007150060037403F220B3147F0A7E00120DC62015
:10072500B30A781BE2640460037404F230B00878FD
:100735001BE2B40102E4F230B108781BE2B4020214
:10074500E4F230B208781BE2B40302E4F230B308F5
:09075500781BE2B40402E4F22274
:1005BB00781BE224FE606314607314607324037071
:0105CB007CB3
:1005CC00E4784DF2A2B282B182B35070784DE2045D
:1005DC00F2E2B4140E12083E784EEEF208EFF2E49A
:1005EC00784DF2784EE2FC08E2FDE41202A6E4FB40
:1005FC00FA79A078401200FBE4FBFA797F78431279
:10060C000204E4FBFA797A78441200FB781612059E
:09061C00081207D312090480AB97
:10062500A2B282B082B3501B120A00120514120E38
:100635000280ED020ED7A2B182B082B25005120B34
:040645001580F32207
:070F2500D2A500D2A60022B4
:0D0EE500D2A600D2A5120F2CC2A5020F2C20
:0D0EF200C2A500D2A6120F2CD2A5020F2C13
:100E6E00C2A600300104C2A58002D2A500D2A612ED
:090E7E000F2CC2A600D2A500222F
:050E54007FA0120D80DB
:100E5900D2A6120F2C30A508C2A600120EF2C32288
:050E6900C2A600D32227
:100D8000E4FEC2A600EF30E705D2A5008003C2A5AD
:100D900000D2A600EF25E0FF0EEEB408E5C2A600E3
:030DA000D2A500D9
:010DA300222D
:100D2C00C2A600D2A500E4FED2A600EF30A5054471
:100D3C0001FF800354FEFF00C2A600EEC3940750CF
:0A0D4C0004EF25E0FF0EEEB408DE10
:010D5600227A
:100C4200781CEFF208ECF208EDF2120EE5120E54E7
:100C5200400122781CE2FF120D80120E594001223F
:100C6200781D08E2FF120D80120E59400122120E69
:030C7200F2D32298
:040B5500781FEFF224
:100B5900120EE5120E5440037F0022781FE2FF12A5
:100B69000D80C201120E6E120EE57FA1120D8012C8
:100B79000E5940037F0022120D2C7820EFF2C2019A
:0A0B8900120E6E120EF27820E2FF49
:010B9300223F
:100EC500AD071FED600BE4FEEEC3947050F20E808B
:010ED500F725
:010ED60022F9
:1009B000AB077F05120EC5C2A2C2A0C2A100D2A27F
:1009C000EBC41313135401139297EBC41313540382
:1009D000139296EBC4135407139295EBC4540F1360
:1009E0009294EB131313541F139293EB1313543F6E
:1009F000139292EBC313139291EB139290C2A22223
:10095E00AB077F05120EC5C2A2D2A0C2A100D2A2C1
:10096E00EBC41313135401139297EBC413135403D4
:10097E00139296EBC4135407139295EBC4540F13B2
:10098E009294EB131313541F139293EB1313543FC0
:10099E00139292EBC313139291EB139290C2A2C2D5
:0209AE00A02285
:020E1F00AA0522
:100E2100EFC39410EF400524B0FC80032480FCAF95
:090E3100041209B0AF0202095ECF
:0A0AD2007822EBF208EAF208E9F2DC
:100ADC00EFC454F07826F2E408F27825E2FF782788
:100AEC00E2FEC39F502218E2FF04F27822E2FB08D8
:100AFC00E2FA08E2F98E82758300120456FD120E9A
:080B0C001F7827E204F280D2F9
:010B140022BE
:100CA7007F0F120EC57F381209B07F381209B07F47
:100CB700381209B07F061209B07F0C1209B07F0104
:0D0CC7001209B07F0F120EC57F0F020EC57F
:100E870053877F75985053890F438920758BFD755C
:070E97008DFDC2ABD28E22DB
:080F1D008F993099FDC2992261
:050F3A00AE07020F1DCF
:020F4400002289
:100E9E00E4FDFCC3ED9FEC9E500A120F440DBD0005
:040EAE00010C80EFC4
:010EB200221D
:070F2C007F057E00020E9E0E
:100DC600D3EF9400EE940040147D727C00ED1D700C
:0D0DD600011CED4C70F7EF1F70E61E80E36E
:010DE30022ED
:100DE400D3EF9400EE940040147D717C00ED1D70EF
:0D0DF400011CED4C70F7EF1F70E61E80E350
:010E010022CE
:060DBF00842E0101010178
:0A0EFF0000007F077E70DEFEDFFCBE
:010F090022C5
:040F3F007FA3DFFEAF
:010F4300228B
:060F330000007F79DFFEE3
:010F39002295
:080F14007F027E0FDEFEDFFC10
:010F1C0022B2
:090F0A00007F0B7EBEDEFEDFFC61
:010F130022BB
:100E0200E4FDD2A4742E2DF8E2F580C2A474082D5C
:0C0E1200F8E2F580120F0A0DEDB404E6C2
:010E1E0022B1
:100CD400E47851F2D2A70000C2A77F587E02120E18
:100CE4009ED2A77F3C7E00120E9EA2A7E4337851C9
:0C0CF400F27F647E00120E9E7851E2FF39
:010D000022D0
:100C0C00E47851F208F2187408F2D2A70000C2A7D7
:100C1C007852E2C313F2D2A730A704E24480F27FE9
:100C2C003C7E00120E9E7851E214F2E2D3940050F6
:050C3C00D97852E2FF2F
:010C41002290
:040C75007851EFF2D1
:100C7900E408F27408F2C2A77851E21392A77F3C04
:100C89007E00120E9ED2A77851E2C313F208E21435
:0E0C9900F2E2D3940050DF7F2D7E00020E9E0B
:0A0BD2007828EBF208EAF208E9F2D5
:100BDC00120CD47F33120C75E4782BF2120C0C78B7
:100BEC0028E2FB08E2FA08E2F908E2F582758300D4
:0F0BFC00EF120483782BE204F2E2C3940840DD89
:010C0B0022C6
:100A0000120CD47FCC120C757F44120C75120CD4CE
:100A10007FCC120C757FBE120C75120C0C7850EF47
:100A2000F2120C0CEFFE7850E2FDEDFFC3EE9400E5
:100A3000500FD200EFF4FFEEF4FEEF2401FFE43E8E
:080A4000FE782CEEF208EFF243
:010A4800228B
:10051400782CE2FC08E2FDEC1202A6E4FBFA7980F6
:10052400783D1200FB7852120508E4FFFE7D207C22
:10053400417852E2FB08E2F908E2FA08E2CBF81249
:1005440000FBE4FBFAF9783F12000A1202DFAB0762
:10055400AA067C007D641204A57850EFF27C007D2D
:1005640064AF03AE021204A57E007F0ACFCDCFCEC6
:10057400CCCE1204A57851EFF2AE02AF037C007D1D
:10058400641204A57E007F0ACFCDCFCECCCE120458
:10059400A5AF05783174FFF27850E2240CF8E278C4
:1005A40030F27851E2240CF8E2547F782FF2740C84
:0605B4002FF8E2782EF2A0
:0105BA00221E
:1000030002034BE86480F8E933E83360110460F0DD
:10001300ED33EC337009E8FCE9FDEAFEEBFF220463
:1000230060DED3EB9FEA9EE99DE8C2E78CF0C2F75E
:1000330095F0400CE8CCF8E9CDF9EACEFAEBCFFB2A
:1000430012031685D0F05804700320D5B3E804706A
:10005300075002B2D502035592D5EC0460F7E4CC05
:10006300C0E0C398F8603B94186008400DD0E0FBF3
:1000730002032DE4FBFAC9FC8028E830E406E4C956
:10008300FBE4CAFCE830E305E4C9CACBFCE8540747
:100093006010F8C3E913F9EA13FAEB13FBEC13FC52
:1000A300D8F130F52FC3E49CFCEF9BFFEE9AFEEDF5
:1000B30099FDD0E0FBEF4E4D4C701222DB0302039F
:1000C30052EC2CFCEF33FFEE33FEED33FDED30E766
:1000D300EB02032DEF2BFFEE3AFEED39FDD0E0FBF3
:1000E30050130BBB0003020355ED13FDEE13FEEF9C
:0800F30013FFEC13FC02032DC6
:1000FB00EC4D6011E8497017ED33EC3304600DE4FF
:10010B00FCFFFEFD22E933E8330470F802034B12C7
:10011B00031658046009E4CC2481500628500902C8
:10012B000355284003020352C0E0EB4A7044B980E8
:10013B0006D0E0FB020341EF4E701CBD8008EBFFC5
:10014B00EAFEE9FD80EBE98DF0A4FEE5F00201E4A7
:10015B00E9CDF9EAFEEBFFEF89F0A4FCE5F0CE89DF
:10016B00F0A42EFFE435F0CD89F0A42DFEE435F09C
:10017B008067EF4E7005BD80D780C3EF8BF0A4ACCA
:10018B00F0EE8BF0A42CFCE435F0F8EF8AF0A42C05
:10019B00E5F038FCE433CB8DF0A42CFCE5F03BF818
:1001AB00EE8AF0A42CFCE5F038F8E433CF89F0A408
:1001BB002CFCE5F038CF3400CE89F0A42FFFE5F00E
:1001CB003EFEE433C98DF0A42EFEE5F039CD8AF066
:1001DB00A42FFFE5F03EFEE43DFD33D0E0FB5007DE
:1001EB000BBB000F020355EC2CFCEF33FFEE33FE81
:0601FB00ED33FD02032DAF
:10020100020355EC5D046005E85904700302034BD9
:10021100120316580460F6EC4860F2EC7004FDFE1F
:10022100FF22C860DB2481C85009C39860025006D0
:100231000203529850CAF582E9294B4A7005AB82F4
:1002410002034175F0007C1A7880C3EF9BEE9AEDB2
:1002510099400DC3EF9BFFEE9AFEED99FDE842F048
:10026100DC23ACF0D0E0FFD0E0FED0E0FDAB82209B
:10027100E7101BEB60BAEC2CFCEF33FFEE33FEED25
:1002810033FD02032DE803F830E705C0F075F000F7
:10029100EF2FFFEE33FEED33FD40B830E7C280AA09
:1002A10075F020800E75F010800575F0087D007ED8
:1002B100007F003392D530D5031204FAEC3340109D
:1002C100EF33FFEE33FEED33FDEC33FCD5F0ED22E1
:0E02D100E5F0247EA2D513CC92E7CDCEFF221D
:1002DF00EDD2E7CD33EC3392D524814006E4FFFE17
:1002EF00FDFC22FCE4CFCECDCC24E0501174FF8076
:1002FF00EDC3CC13CCCD13CDCE13CECF13CF047013
:07030F00F030D5DE0204FA14
:10031600E9D2E7C933E833F892D5EDD2E7CD33EC2D
:0703260033FC5002B2D522A6
:10032D00EC30E7100FBF000C0EBE00080DBD000431
:10033D000BEB6014A2D5EB13FCED92E7FD2274FFDD
:10034D00FCFDFEFF22E480F8A2D574FF13FC7D8036
:03035D00E480EF4A
:100655000208A6E493A3F8E493A34003F68001F20D
:1006650008DFF48029E493A3F85407240CC8C333A6
:10067500C4540F4420C8834004F456800146F6DF75
:10068500E4800B0102040810204080900DA4E47E54
:10069500019360BCA3FF543F30E509541FFEE4936A
:1006A500A360010ECF54C025E060A840B8E493A331
:1006B500FAE493A3F8E493A3C8C582C8CAC583CA5C
:1006C500F0A3C8C582C8CAC583CADFE9DEE780BE14
:010DC500002D
:10036000E709F608DFFA8046E709F208DFFA803E7F
:1003700088828C83E709F0A3DFFA8032E309F6086C
:10038000DFFA8078E309F208DFFA807088828C83D4
:10039000E309F0A3DFFA806489828A83E0A3F60888
:1003A000DFFA805889828A83E0A3F208DFFA804C62
:1003B00080D280FA80C680D4806980F28033801039
:1003C00080A680EA809A80A880DA80E280CA8033A2
:1003D00089828A83ECFAE493A3C8C582C8CCC5831A
:1003E000CCF0A3C8C582C8CCC583CCDFE9DEE780EA
:1003F0000D89828A83E493A3F608DFF9ECFAA9F069
:10040000EDFB2289828A83ECFAE0A3C8C582C8CCBE
:10041000C583CCF0A3C8C582C8CCC583CCDFEADED7
:10042000E880DB89828A83E493A3F208DFF980CC39
:1004300088F0EF60010E4E60C388F0ED2402B40432
:100440000050B9F582EB2402B4040050AF232345D9
:0604500082239003B0734B
:10045600BB010CE58229F582E5833AF583E022505B
:1004660006E92582F8E622BBFE06E92582F8E222A5
:0D047600E58229F582E5833AF583E49322BF
:10048300F8BB010DE58229F582E5833AF583E8F0AF
:10049300225006E92582C8F622BBFE05E92582C85B
:0204A300F22243
:1004A500BC000BBE0029EF8DF084FFADF022E4CC3B
:1004B500F875F008EF2FFFEE33FEEC33FCEE9DEC04
:1004C500984005FCEE9DFE0FD5F0E9E4CEFD22ED4A
:1004D500F8F5F0EE8420D21CFEADF075F008EF2F94
:1004E500FFED33FD4007985006D5F0F222C398FD85
:0504F5000FD5F0EA2222
:0E04FA00C3E49FFFE49EFEE49DFDE49CFC2213
:0C050800ECF208EDF208EEF208EFF2222F
:00000001FF
